:020000040800F2
:10000000B0A5002061E10208E9C00208EBC00208C7
:10001000EDC00208EFC00208F1C00208D1240308B5
:10002000000000000000000000000000F3C0020813
:10003000F5C0020800000000F7C00208F9C002087D
:10004000D5240308D924030801C10208DD240308CC
:10005000E1240308E5240308E9240308ED24030848
:10006000F12403080BC10208F5240308F92403084E
:10007000FD240308012503080525030809250308B5
:100080000D250308CDC10208D7C1020811250308B8
:1000900015250308192503081D2503082125030834
:1000A000E1C1020825250308292503082D25030899
:1000B0003125030833C102083DC102083525030874
:1000C000392503083D250308412503084525030874
:1000D000492503084D250308512503085525030824
:1000E000592503085D2503086125030865250308D4
:1000F000692503086D25030847C102087125030817
:1001000075250308792503087D2503088125030843
:1001100085250308892503088D25030891250308F3
:1001200095250308992503089D250308A1250308A3
:10013000A525030869C10208A9250308AD25030800
:10014000B1250308B525030851C10208B9250308E4
:10015000BD250308C1250308C5250308C9250308D3
:100160002DE9F14F84B001208DF800000020ADF89A
:10017000020000240020029000255FF0000B082000
:100180008DF8010000200190DFF8080A00780128AE
:1001900003D103208DF80000DCE10498002803D18E
:1001A00006208DF80000D5E1049810F00F0F03D061
:1001B00007208DF80000CDE14FF6FF72DFF8D81967
:1001C0000888904202D15FF4801007E00888002878
:1001D00002D15FF4801001E008888002400B022801
:1001E00014D30888904202D15FF4801107E0088898
:1001F000002802D15FF4801101E00988890211F121
:100200000061049810F58040814203D208208DF8E7
:1002100000009FE1DFF8840901F08CFC8DF80100FB
:100220009DF80100002807D09DF80100032803D0A5
:100230000C208DF800008DE1EFF31080039072B672
:100240000FF67511DFF858098160049810F17840B5
:1002500005005FF028085FF00009DFF84869370003
:100260004A464146380001F089FC00273800C0B2F8
:10027000002840F061819DF80000012840F05C8179
:10028000DFF82489BDF802103A00D2B24020424380
:1002900018F802004118ADF8021002993A00D2B2E3
:1002A0004020424308EB020042783B00DBB2402092
:1002B000434318F8030000FB021102913900C9B250
:1002C0004020414318F80100022803D3BDF8020082
:1002D000032803D30D208DF800002BE13900C9B2AB
:1002E0004020414308EB01004078002802D00298EA
:1002F000032803D30E208DF800001BE1002001909D
:100300005FF01409200080B209FB00F006EB000149
:100310003A00D2B24020424308EB020041605FF055
:10032000000A51463A00D2B24020424318F8020077
:10033000C9B2814280F0FE8004991BEB01012000CC
:1003400080B209FB00F031503900C9B2200080B200
:1003500009FB00F0305801F0E7F8002814D139000B
:10036000C9B24020414308EB010041781BEB050076
:10037000400B01F035FA0028F1D0DFF830280121D8
:10038000012001F098FC75E0200080B209FB00F02C
:10039000305801F03BF9002814D13900C9B240208F
:1003A000414308EB010041781BEB0500400B01F0D5
:1003B00017FA0028F1D0DFF8F8270121012001F019
:1003C0007AFC57E03900C9B24020414308EB0100F4
:1003D000C06800280DD1200080B209FB00F006EBB8
:1003E00000013A00D2B24020424308EB0200C16053
:1003F00040E03900C9B24020414308EB0100C06829
:100400000190200080B209FB00F006EB000101988A
:1004100001F0D5F93A00D2B240214A4308EB02017B
:10042000C8603900C9B24020414308EB0100C168EF
:10043000019881420ED13900C9B24020414308EBF6
:10044000010041781BEB0500400B01F0C9F90028C1
:1004500010D1F0E73900C9B24020414308EB010058
:1004600041780198006810F17840400B01F0B8F92C
:100470000028EFD03900C9B24020414308EB010009
:10048000C06800280ED13900C9B24020414308EBB2
:10049000010041683A00D2B24020424308EB02001A
:1004A000816038E03900C9B24020414308EB0100C7
:1004B000C1683A00D2B24020424308EB02004268D1
:1004C0003B00DBB24020434318F8030009FB00F077
:1004D0001044143881420ED13900C9B24020414342
:1004E00008EB010041683A00D2B24020424308EBD9
:1004F000020081600FE03900C9B24020414308EB9F
:100500000100C06810F114013A00D2B24020424309
:1005100008EB020081603900C9B24020414308EB7A
:10052000010041784FF4005000FB01BB641C1AF13C
:10053000010AF6E67F1C99E69DF80000012806D125
:100540000120DFF85016087000208DF80000039895
:1005500080F310889DF8000005B0BDE8F08F2DE90C
:10056000F84F83460C00150001260027D8465FFA95
:1005700088F85FEA98085FF010095FEA850A1AF1C7
:100580000F0A5FEA1A1A5FEA0A1ADFF8080600780B
:10059000002802D102200600E6E0DFF81806007805
:1005A000012802D104200600DEE05846C0B200282F
:1005B00002D00F200600D7E0002C02D11120060047
:1005C000D2E014F00300002802D012200600CBE095
:1005D000002D02D113200600C6E0DFF8CC154246FC
:1005E000D2B24020424301EB0200006A00281DD035
:1005F0004246D2B24020424301EB0200806A00280A
:1006000014D04246D2B24020424301EB0200006BBC
:1006100000280BD04246D2B24020424301EB0200F8
:10062000806B002802D0092006009DE00022100007
:10063000C0B2042831D23000C0B201282DD14346C7
:10064000DBB2402043430B441000C0B203EBC000B8
:10065000006A00281FD04346DBB2402043430B44CE
:100660001000C0B203EBC000406A80000F300009E8
:10067000000110EB0A0A4346DBB24020434301EB82
:10068000030043784FF40050434319EB0A008342C0
:1006900001D213200600521CC9E73000C0B2012865
:1006A00062D1EFF3108372B61BF0030007004246DD
:1006B000D2B2402042430A443800C0B202EBC0002C
:1006C00004624246D2B2402042430A443800C0B2DB
:1006D00002EBC000456200221000C0B204283FD2E5
:1006E000C4465FFA8CFC402000FB0CFC01EB0C00C4
:1006F00094465FFA8CFC00EBCC00006A00282DD0F9
:10070000C4465FFA8CFC402000FB0CFC01EB0C00A3
:10071000D0F808C01000C0B20CEB800EC4465FFADF
:100720008CFC402000FB0CFC01EB0C008068006896
:1007300019EB0000CEF80400C4465FFA8CFC4020A0
:1007400000FB0CFC8C441000C0B20CEBC000406AF3
:1007500080000F300009000110EB0909521CBBE7B3
:1007600083F31088002006003300DBB2DFF8B42DDD
:100770000121012001F09FFA3000C0B2BDE8F28FE4
:100780002DE9F84F84B0824601245546EDB2AD08FC
:100790001AF003008DF800000020019000260027C9
:1007A000DFF8F0030078002802D1022004000CE1F9
:1007B000DFF8008498F80000012802D1042004002A
:1007C00003E15046C0B2002802D00F200400FCE034
:1007D000DFF8D4932900C9B24020414309EB01005E
:1007E0009DF8001000EBC100006A002802D1102023
:1007F0000400EAE02900C9B24020414309EB0100AE
:10080000C068002802D10A200400DEE0EFF3108B5C
:1008100072B6012088F800002900C9B22A00D2B2BD
:100820004020424309EB0200C068006800F07CFEF3
:10083000002802D10B200400C2E02900C9B24020E8
:10084000414309EB0100C068006800F0DFFE0028AA
:1008500002D10B200400B3E02900C9B2402041437B
:1008600009EB0100C0680068070051463879C9B239
:10087000814210D12900C9B24020414349449DF82A
:10088000000001EBC000416AB7F80500814202D1C7
:100890001020060066E05146F879C9B2814215D1B0
:1008A0002900C9B24020414349449DF8000001EBB2
:1008B000C000416A3889814208D1B7F8050080003C
:1008C0000F3000090001103006004BE05146B87AA5
:1008D000C9B281421CD12900C9B2402041434944D8
:1008E0009DF8000001EBC000416AB7F80B0081429F
:1008F0000ED1B7F8050080000F30000900013989DA
:1009000089000F310909090108181030060029E093
:100910005146787BC9B2814222D12900C9B2402018
:10092000414349449DF8000001EBC000416AF88949
:10093000814215D1B7F8050080000F300009000191
:10094000398989000F31090909010818B7F80B1016
:1009500089000F310909090108181030060001E06B
:10096000142004002000C0B2012829D12900C9B2F6
:100970004020414309EB0100C06800683018019035
:100980002900C9B24020414349449DF8000001EBD1
:10099000C000406A80000390019802902900C9B20B
:1009A0004020414349449DF8000001EBC000D0F8CD
:1009B0002090039A0299484601F0C6F900200400ED
:1009C000002088F800008BF310882300DBB2DFF8EA
:1009D000302C0121012001F06EF92000C0B205B0D9
:1009E000BDE8F08F2DE9F34F81B0824601208DF8EC
:1009F00001005446E4B2A4081AF003008DF8000088
:100A000064480078002801D10220C0E05046C0B2FE
:100A1000002801D00F20BAE0634D2100C9B2402068
:100A2000414329449DF8000001EBC000006A002802
:100A300001D11020ABE0EFF3108672B60127DFF88A
:100A4000C48BD8F8001017FA04F00143C8F800105E
:100A5000D8F80030DFF8B02B0121002001F02BF98D
:100A60002100C9B24020414305EB010081789DF887
:100A7000000017FA00F001432200D2B240204243A6
:100A800005EB020081709DF8003017FA03F3DBB22A
:100A9000DFF8F82C0121002001F00DF92100C9B286
:100AA0004020414305EB01009DF8001000EB810060
:100AB0000299016186F31088DFF8F89099F8000038
:100AC000002863D1EFF3108B72B6012089F8000083
:100AD0008BF310882000C0B200F0B4FE02282AD1A7
:100AE000EFF3108172B6002089F80000D8F80000FA
:100AF000A74030EA0707C8F8007000222300DBB2E5
:100B00004020434305EB0300827000221000C0B276
:100B100004280CD22300DBB2402043432B441000B6
:100B2000C0B203EB800300201861521CEEE781F392
:100B3000108815202BE0EFF3108772B6DFF8EC0C6D
:100B400004709DF800104170002181702100C9B22D
:100B50004020414305EB0100817809012200D2B217
:100B60004020424305EB0200817087F3108821008A
:100B7000C9B24020414305EB01008378DFF8B02C77
:100B80000121002001F097F8002000E00020C0B211
:100B9000BDE8FE8F7E950020A007F90B28010020FC
:100BA000049300205C90002068010020D813030803
:100BB000C41503087F9500202DE9F04780460224E4
:100BC000DFF8685CA878002809D0022800F02E839E
:100BD000C0F0CF80032800F0FF8300F0A0BCDFF856
:100BE000542C0121002001F066F84046C0B20028D4
:100BF00040F08E80DFF8406C042229784020414389
:100C000006EB010080680168DFF8080D00F0C0FD08
:100C1000002836D1EFF3108772B60320A87087F34F
:100C20001088DFF8182C29784020414306EB01009A
:100C300041782B784020434306EB0300806800682E
:100C400010F17840400B01F04CF904002000C0B2D4
:100C5000022840F08D800121287800F0CFFEEFF3CC
:100C6000108172B6DFF89C693268012328788340CE
:100C70009A4332600022DFF8780D027081F3108809
:100C800076E0EFF3108772B60120A8700021DFF83C
:100C9000B00B017087F31088DFF8A03B2978402063
:100CA00041433144687801EBC000426A2978402012
:100CB000414306EB01008068697800EB81004168E0
:100CC00095F800C0402000FB0CFC06EB0C006E7891
:100CD00000EBC600006A01F097F804002000C0B2E3
:100CE000022845D10121287800F088FEEFF3108119
:100CF00072B6DFF8106932680123287883409A437E
:100D000032600020DFF8E82C107081F310882FE0AB
:100D1000DFF8E02C0121002000F0CDFFDFF81C3BC4
:100D20000422DFF8146B29784020414306EB0100D0
:100D300080680168DFF8DC0B01F066F80400200031
:100D4000C0B2022814D10121287800F057FEEFF339
:100D5000108172B6DFF8AC2816680123287883402A
:100D60009E4316600020DFF8882C107081F31088F5
:100D7000D5E3DFF8842C0121002000F09CFF4046E1
:100D8000C0B2002840F01182EFF3108672B6687886
:100D9000032803D26878401C687001E00020687066
:100DA000DFF89C1A0878401C0870DFF88C7A2A78E3
:100DB0004020424307EB02006A7800EBC200006A61
:100DC000002802D108780428E1D386F31088087837
:100DD00004283BD2DFF8643A297840204143394463
:100DE000687801EBC000426A29784020414307EB54
:100DF00001008068697800EB8100416895F800C0C7
:100E0000402000FB0CFC6744687807EBC000006AD8
:100E100000F0FAFF04002000C0B2022840F0058272
:100E20000121287800F0EAFDEFF3108172B6DFF8B7
:100E3000D4773A680123287883409A433A600022A5
:100E4000DFF8AC0B027081F31088EEE129784020C6
:100E5000414307EB01008068006800F0D7FB0028E1
:100E600036D1EFF3108972B60320A87089F3108889
:100E7000DFF8C82929784020414307EB0100417879
:100E80002B784020434307EB03008068006810F193
:100E90007840400B01F025F804002000C0B2022881
:100EA00040F0C3810121287800F0A8FDEFF3108104
:100EB00072B6DFF8502717680123287883409F43D4
:100EC00017600020DFF8282B107081F31088ACE148
:100ED000EFF3108972B6DFF8243C297840204143B3
:100EE00007EB0100C068186029784020414339446D
:100EF0002A784020424307EB02008068C8602978C6
:100F00004020414307EB010081682A78402042439A
:100F100007EB0200426895F800C0402000FB0CFC83
:100F200017F80CC0142000FB0CFC02EB0C0014386A
:100F300081420BD129784020414339442A7840200E
:100F4000424307EB0200406888600BE029784020AC
:100F5000414339442A784020424307EB020080682D
:100F60001430886000210800C0B2042841D22A78D9
:100F70004020424307EB0200C2680800C0B202EB07
:100F800080004068002832D02A784020424307EB96
:100F9000020080680A00D2B200EB820295F800C01D
:100FA000402000FB0CFC07EB0C008068D0F800C070
:100FB00095F800E0402000FB0EFE07EB0E00D0F895
:100FC0000CE00800C0B20EEB8000D0F804E095F809
:100FD00000A0402000FB0AFA07EB0A00C068006886
:100FE000BEEB000E5FEAAE0E0CEB8E005060491CAB
:100FF000B9E789F310881868002831D0EFF3108A18
:1010000072B60220A8708AF31088DFF83028297899
:101010004020414307EB010041781868006810F157
:101020007840400B00F05DFF04002000C0B20228B1
:1010300040F0FB800121287800F0E0FCEFF3108104
:1010400072B6DFF8C02517680123287883409F43D4
:1010500017600020DFF89829107081F31088E4E011
:101060000021287800F0CAFC29784020414307EB92
:101070000100807800280FD1EFF3108172B6DFF8FD
:101080008425D2F800C00123287883403CEA030C71
:10109000C2F800C081F31088DFF868A5DAF8000014
:1010A000002878D000210800C0B2202827D2DAF822
:1010B0000000C840C00720D5EFF3108272B6297037
:1010C0000020A87000231800C0B2042812D295F89E
:1010D00000C0402000FB0CFC07EB0C0080785FF0A8
:1010E000010C1CFA03FC10EA0C0F01D06B7001E03C
:1010F0005B1CE8E782F3108801E0491CD3E7DFF8C6
:10110000002A0121002000F0D6FD287800F09AFB8B
:1011100004002000C0B2022815D10121287800F077
:101120006DFCEFF3108172B6DAF800200123287805
:1011300083409A43CAF800200020DFF8B4281070DA
:1011400081F3108871E0EFF3108172B62A784020A5
:1011500042433A442B784020434307EB0300837813
:1011600095F800C0402000FB0CFC07EB0C008078D9
:1011700053EA001393702A78402042433A442B7874
:101180004020434307EB0300807810F0F00090709C
:1011900081F3108849E0EFF3108272B60020DFF887
:1011A0005018087082F310883FE0DFF858290121B9
:1011B000002000F080FDDFF88066DFF880362978B7
:1011C000402041433144687801EBC000426A2978ED
:1011D0004020414306EB01008068697800EB810004
:1011E00041682F78402047433E44687806EBC000B2
:1011F000006A00F009FE04002000C0B2022814D1E9
:101200000121287800F0FAFBEFF3108172B6DFF8C5
:10121000F4231368012628788640B3431360002224
:10122000DFF8CC07027081F3108878E1DFF8D82866
:101230000121002000F03FFD4046C0B2002840F0F0
:101240009E800021287800F0D9FBDFF8EC65297832
:101250004020414306EB0100807800280CD1EFF3D9
:10126000108172B6DFF89C23176801232878834029
:101270009F43176081F31088DFF88873386800286F
:1012800073D000210800C0B2202826D23868C84098
:10129000C00720D5EFF3108272B629700020A87025
:1012A00000231800C0B2042812D295F800C04020D4
:1012B00000FB0CFC06EB0C0080785FF0010C1CFAC4
:1012C00003FC10EA0C0F01D06B7001E05B1CE8E737
:1012D00082F3108801E0491CD4E7DFF830280121AF
:1012E000002000F0E8FC287800F0ACFA04002000B0
:1012F000C0B2022813D10121287800F07FFBEFF360
:10130000108172B63B6801222878824093433B608B
:101310000020DFF8DC26107081F310885BE0EFF32B
:10132000108172B62A784020424332442B78402004
:10133000434306EB030083782F784020474306EBB6
:101340000700807853EA001393702A7840204243C4
:1013500032442B784020434306EB0300807810F0A2
:10136000F000907081F3108835E0EFF3108072B6D2
:101370000021DFF87C26117080F310882BE0DFF865
:10138000BC24DFF8B4142B784020434301EB030066
:101390004178DFF8680700680068B0F50050400B3E
:1013A00000F09FFD04002000C0B2022813D10121EB
:1013B000287800F023FBEFF3108172B6914A13688E
:1013C000012628788640B34313600020DFF82026EA
:1013D000107081F31088A2E0DFF83427012100208B
:1013E00000F069FC4046C0B2002862D1EFF31086DD
:1013F00072B60020A87000210800C0B204280FD2E5
:10140000DFF834342A784020424303EB020080782E
:1014100001228A40104201D0697001E0491CEBE7CB
:1014200086F31088287800F00DFA04002000C0B27E
:10143000022814D10121287800F0E0FAEFF310819E
:1014400072B6704A1368012728788740BB4313603F
:101450000020DFF89C25107081F310885EE0EFF328
:10146000108172B6DFF8D0232B7840204343134419
:101470002F784020474302EB0700877895F800C09B
:10148000402000FB0CFC02EB0C00807857EA0017B0
:101490009F702B784020434313442D7840204543D0
:1014A00002EB0500807810F0F000987081F310884E
:1014B00034E0DFF860260121002000F0FCFBDFF8BB
:1014C0007833DFF8782329784020414303EB01008B
:1014D00041782E784020464303EB06008068006880
:1014E000B0F50050400B00F0FCFC04002000C0B23E
:1014F000022813D10121287800F080FAEFF310813F
:1015000072B6404A16680123287883409E431660CD
:101510000022DFF8DC04027081F31088FFE7BDE8E9
:10152000F0870000401F030830B402000023107849
:10153000FF2823D15078FF2820D14FF6FF70548820
:1015400084421BD11479FF2C18D1B2F80540844293
:1015500014D1D479FF2C11D1148984420ED1947AFC
:10156000FF2C0BD1B2F80B40844207D1547BFF2CE7
:1015700004D1D489844201D100203DE0DFF89855A0
:101580000C00E4B24020444305EB040044784FF4DF
:1015900000504443A408B2F8055010894519B2F828
:1015A0000B004519D0894519AC4201D2002023E037
:1015B00014790800C0B2B4EB800F01D000201BE00A
:1015C000D0790C00E4B2A400641CA04201D0002039
:1015D00012E0907A0C00E4B2A400A41CA04201D056
:1015E000002009E0507B0C00E4B2A400E41CA042FF
:1015F00001D0002000E00120C0B230BC70470000E4
:10160000E820030880940020E81B03082DE9F84334
:10161000040000250020009014F1100600275FF060
:101620000008DFF8F8240121002000F044FBB8F1A5
:10163000040F80F09A80B8F1000F07D0B8F1020FC4
:101640004BD028D3B8F1030F6CD08DE0B4F805006F
:1016500000281DD06B46B4F805203100DFF8C00427
:1016600000F032FE81464846C0B2002809D1B4F8E5
:10167000050080000F3000090001070018F1010883
:1016800008E04846C0B2022804D001F011F801E099
:1016900018F10108CBE7208900281BD06B4622896E
:1016A000B919DFF87C0401F005F881464846C0B25C
:1016B000002808D1208980000F3000090001C719D7
:1016C00018F1010808E04846C0B2022804D000F032
:1016D000EFFF01E018F10108A9E7B4F80B000028BA
:1016E0001DD06B46B4F80B20B919DFF8340400F0B4
:1016F000E1FF81464846C0B2002809D1B4F80B008A
:1017000080000F3000090001C71918F1010808E036
:101710004846C0B2022804D000F0CAFF01E018F128
:10172000010884E7E08900281BD06B46E289B919DB
:10173000DFF8EC0300F0BEFF81464846C0B2002847
:1017400008D1E08980000F3000090001C71918F1A5
:10175000010808E04846C0B2022804D000F0A8FF03
:1017600001E018F1010862E761E7009960888142B1
:1017700001D101200500009BDFF8A82301210020F2
:1017800000F099FA2800C0B2BDE8F2830C1C0308EF
:1017900070B403000120002494420DD20500EDB284
:1017A000012D09D153F8246051F82450AE4201D0E4
:1017B00000252800641CEFE7C0B270BC704770B40D
:1017C000030018001C680D6866786A78964205D296
:1017D0006E786278B61AFF2E00D0080070BC704791
:1017E000F8B584B004000D0000260020009001AF81
:1017F000CD4890E80E0087E80E000294039500F0B3
:10180000EDFF694601A801F071F8002801D000271A
:1018100006E0009810F1010F01D0002700E0012739
:1018200000F0EDFF3800C0B205B0F0BD8494002098
:10183000F80603083C000308680100200493002018
:10184000809500202DE9F84F04000225002000902B
:1018500000265FF010095FF0000A2E4FBB4652468B
:101860004946584600F08AF9042E5ED2AA49220061
:10187000D2B24020424301EB020000EBC600006AF6
:10188000002850D00098002825D16B462200D2B203
:101890004020424301EB020000EBC600426AA4462E
:1018A0005FFA8CFC402000FB0CFC01EB0C0000EB11
:1018B000C600016A9A4800F007FD80464046C0B263
:1018C000002801D1761CCFE74046C0B20228CBD019
:1018D00000F0EEFEC8E76B462200D2B24020424341
:1018E00001EB020000EBC600426AA4465FFA8CFCE2
:1018F000402000FB0CFC01EB0C0000EBC600016A71
:10190000874800F0D7FE80464046C0B2002803D189
:10191000761CA9E7A09200204046C0B20228A3D0BE
:1019200000F0C6FEA0E7761C9EE7EFF3108972B6C2
:1019300079492200D2B24020424301EB0200C06844
:1019400000280AD02200D2B24020424301EB02001C
:10195000C06800684078401C787000987880E4B2D5
:10196000A00038712200D2B24020424301EB0200B5
:10197000406AA7F805002000C0B28000401CF87142
:101980002200D2B24020424301EB0200C06A3881FB
:101990002000C0B28000801CB8722200D2B2402069
:1019A000424301EB0200406BA7F80B002000C0B2DD
:1019B0008000C01C78732200D2B24020424301EB69
:1019C0000200C06BF88189F31088584B0422A446AA
:1019D0005FFA8CFC402000FB0CFC01EB0C008068E3
:1019E0000168380000F010FAC0B2BDE8F28F0000C4
:1019F0007F950020F0ED0208880003082DE9F843E8
:101A000080460C00002000250026434F4146C9B205
:101A10004020414307EB0100807800286BD0300064
:101A2000C0B2042867D25FF001094146C9B2402024
:101A3000414307EB01008178301D19FA00F00140A5
:101A40000D002800C0B2002853D04146C9B2402042
:101A5000414307EB0100807819FA06F1084248D1AA
:101A60004146C9B24020414339443000C0B201EB85
:101A700080000069002823D02000C0B24246D2B2C4
:101A800040214A433A443100C9B202EB810109695D
:101A900088474346DBB2264A0121002000F00BF9BB
:101AA000EFF3108172B64246D2B2402042433A442C
:101AB0003000C0B202EB80020020106181F3108878
:101AC000EFF3108172B64246D2B24020424307EB98
:101AD00002008278301D19FA00F932EA09094246FB
:101AE000D2B24020424307EB020080F8029081F31B
:101AF0001088761C89E7BDE8F183000088940020F7
:101B000068EB020854EE02084004030848EC02089F
:101B1000D4000308B8EE020868010020042103087D
:101B2000280100202C1A0308FC220308049300203B
:101B3000F415030870B504000825002C01D1062611
:101B400017E0207A012801D1032612E000F03CFFC3
:101B500006003000C0B200280BD107490868401CBD
:101B6000086008682060A06960600120207200F0B1
:101B70002DFF3000C0B270BD2894002062F30F2208
:101B800062F31F42401810F0030308D0C91A1FD394
:101B9000DB0748BF00F8012D28BF20F8022D1300F5
:101BA00030B414461546103928BF20E93C00FAD855
:101BB000490728BF20E90C0048BF40F8042D8900E0
:101BC00028BF20F8022D48BF00F8012D30BC704717
:101BD000C91818BF00F8012DCB0728BF00F8012D48
:101BE0007047F0B40246106895681318506803EB0C
:101BF0005004C00748BF4D44A3422DD013F8016BD9
:101C000016F0030004BF13F8010BC01C31090F29A3
:101C100007D113F8011B0F3103E013F8017B05F81E
:101C2000017B401EF9D10029E6D013F8010BC6F361
:101C30008107032F08BF13F8017B00EB0720404208
:101C400028440026B71E8F421EBF10F8017B05F8FE
:101C5000017B761CF6D1CFE7F0BC02F10C00704797
:101C60002DE9F043C1B004000D0016001F005FF025
:101C7000000830480068A0421AD3280000F04FF84E
:101C80002D490968084213D03B003200414689B211
:101C9000D1F58071EC46404680B2604400F098FE79
:101CA000814619EB0808414689B2684600F0CBFE30
:101CB00041B0BDE8F08308B4F0B507000C00150092
:101CC00005AE33002A0021003800FFF7C9FFF0BC41
:101CD0005DF808FB2DE9F04104000D0000F096FED0
:101CE0000826164FDFF8588032003900404600F0D1
:101CF0002BF8200000F008F8280000F008F8002178
:101D000010480160BDE8F0810A490860704710B5CD
:101D10000400200000F003F80749086010BD01002E
:101D200011F1010F02D15FF0FF3002E00120491EE6
:101D300088407047609400205C940020782303085A
:101D4000389100206494002062B38B0708D0521EA3
:101D500011F8013B00F8013B00F024808B07F6D11D
:101D6000830740F0208000BF103A07D330B4B1E8B9
:101D70003810103AA0E83810F9D230BC530724BF0D
:101D8000B1E80810A0E8081044BF51F8043B40F83F
:101D9000043BD20724BF31F8022B20F8022B44BFAA
:101DA0000B7803707047121F17D35B0009D151F8ED
:101DB000043B20F8023B1B0C121F20F8023BF6D21A
:101DC0000BE051F8043B00F8013B1B0A20F8023BF2
:101DD0001B0C121F00F8013BF3D238BF121D521E1C
:101DE00024BF11F8013B00F8013BF8D87047826826
:101DF000521C8260426832B103685A1C026019703A
:101E00004168491E416070472DE9F04107000C0010
:101E100015001E00B4F1006F28D34FF6FF72DFF8F3
:101E200040140888904202D15FF4801007E00888CF
:101E3000002802D15FF4801001E00888800210F1D0
:101E40000060A04212D30888904202D15FF4801152
:101E500007E00888002802D15FF4801101E00988BA
:101E6000890211F100612819814207D2DFF8F423B9
:101E700001210120FFF71FFF022030E017F00300CF
:101E8000002803D114F00F00002807D0DFF8D82372
:101E900001210120FFF70FFF022020E0300000F0B9
:101EA00085F980464046C0B200280ED1DFF8BC0359
:101EB0000760446085600021DFF8B40301700021F1
:101EC000DFF8B003017001F03DF84346DBB2DFF804
:101ED000A82301210020FFF7EEFE4046C0B2BDE876
:101EE000F081F8B505000C0016004FF6FF72DFF820
:101EF00070130888904202D15FF4801007E00888D0
:101F0000002802D15FF4801001E008888002400BB5
:101F1000A84211D30888904202D15FF4801107E0F3
:101F20000888002802D15FF4801101E00988890245
:101F3000490B6019814207D2DFF8402301210120BB
:101F4000FFF7B9FE022025E0002C07D1DFF82C2393
:101F500001210120FFF7AFFE02201BE0300000F05E
:101F600025F907003800C0B200280AD1BF48C56073
:101F700004610121BE4801700021BE48017000F0DB
:101F8000E1FF3B00DBB2BE4A01210020FFF793FED8
:101F90003800C0B2F2BD2DE9F8430025002400202E
:101FA0000090B44E3078002802D0012865D0C4E0FB
:101FB000B44A01210020FFF77EFEAD4800780028DA
:101FC0002FD1B14A01210020FFF775FE40F24C41AC
:101FD000AE4801600120307000F000FCA34EB068F4
:101FE000012816DB2000C0B2002812D131687068C9
:101FF00001F004F804002000C0B20028EED170689F
:1020000010307060306810303060B068001FB06011
:10201000E4E700F0F4FBB06801282DDA01200500A8
:102020002AE09B4A01210020FFF745FE41F204000F
:10203000964908600120307000F0D0FB8B4E30696B
:10204000002812D02000C0B200280ED1F06800F0A5
:10205000F2FF04002000C0B20028EFD13069401E1A
:102060003061F068401CF060E8E700F0C8FB3069C0
:10207000002801D1012005005FE0864A01210020EF
:10208000FFF719FE844E307800280BD1834A0121D6
:102090000020FFF710FE0FF2B1117C48006800F03D
:1020A000EFFF49E07E4A01210020FFF704FE70485F
:1020B0000078002822D17B4A01210020FFF7FBFD98
:1020C00000F08CFB694FB86801280FDB396878682D
:1020D00000F094FF002809D17868103078603868E3
:1020E00010303860B868001FB860EBE7B8680128A6
:1020F00001DA0120050000F082FB19E06A4A0121A3
:102100000020FFF7D8FD00F069FB584FF86800F099
:1021100092FF002805D13869401E3861F868401CDC
:10212000F8603869002801D10120050000F067FB44
:1021300001F00CF800203070FFE72800C0B2002842
:1021400027D0EFF3108872B6584E00203070584FE9
:102150000020387088F3108856490868002802D09B
:10216000002009688847DFF85091484601F039F8A7
:10217000002819D13078002816D13878002813D1DA
:102180006946484601F05FF8012000998968884750
:10219000E9E74A4A01210020FFF78DFD0FF2A9016E
:1021A0003A48006800F06CFFBDE8F1832DE9F0418A
:1021B00004005FF000080226EFF3108572B6404F6E
:1021C0003878002804D13C4801F008F80120387024
:1021D0003649087800280BD1354A1078002805D1F7
:1021E0000120087001201070012702E0002700E0A4
:1021F000002785F310883800C0B200280AD1002CCF
:1022000006D0A068002803D021002B4801F003F875
:10221000012016E0002C0BD0A068002808D0EFF3B6
:10222000108272B6A0682349086082F3108807E024
:10223000EFF3108272B600201E49086082F3108806
:102240000020C0B2BDE8F08180B5012112480170C4
:102250001C4A01210020FFF72EFD00F073FE01BD96
:10226000A007F90B400F0308400903084C92002017
:102270007395002074950020EC1A0308101B0308C6
:10228000341B0308780F030874FE020834940020FE
:10229000C0FE0208B00F0308719500208CED020803
:1022A00014FB02080CFF020858FF02086F9500207B
:1022B0007095002030940020549300207CF3020895
:1022C00072950020402003082DE9F04704000D001E
:1022D00091461E0008275FF00008002C03D0002D57
:1022E00001D0002E02D15FF0060A31E0207A0028EA
:1022F00002D15FF0040A2BE0174801682068814290
:1023000002D32068002802D15FF0050A20E000F027
:102310005BFB82465046C0B2002819D10F480168C5
:102320002068814203D0200000F0AAFF804640468A
:10233000C0B2002808D14A462900094801F07BF8BC
:1023400030603068606001E00720824600F03EFBAC
:102350005046C0B2BDE8F0872894002024940020A5
:1023600004010020DFF81813C243C2F300230A68F7
:1023700063F308220A60704780B501F0FBF800F0B3
:10238000A9FC00F014F800F06EF800F058F900F025
:1023900081F800F0ADF800F0C5F800F0B4F800F0F6
:1023A00095F8002000F09AFC00F0AAFDFCE710B5BB
:1023B00098B04021002208AC2000FFF7DFFB20216D
:1023C00000226C462000FFF7D9FB022001F02BF918
:1023D000002001F0EBF8002801D000F069F901F0CD
:1023E0005DF9A84A0120116860F3C401116007205B
:1023F00008905FF4803009905FF480100A9081208B
:102400000B904FF480700C9010200D9000201090D5
:1024100008A801F073F9002801D000F049F93F2025
:1024200000900220019000200290002003904020A4
:1024300004900020059000200690002007900121C4
:10244000684601F06FFC002801D000F031F902204D
:1024500001F0E3FE0E2001F029FF002801D000F07A
:1024600027F918B010BD10B592B0482100226C4673
:102470002000FFF783FB4FF4004000905FF48020C2
:102480001190684601F076FF002801D000F010F9A5
:1024900012B010BD80B57C49086850F0010008609A
:1024A000086810F0010000900098002206211D200D
:1024B00001F076FE1D2001F087FE002205211E207E
:1024C00001F06EFE1E2001F07FFE01BD80B50020F0
:1024D000FFF748FF002002F0D5F8002801D000F0F7
:1024E000E7F802F0DFF8002801D000F0E1F801BDC4
:1024F00080B566486649016002F0DEF8002801D028
:1025000000F0D6F801BD80B5624863490160202122
:10251000416002F0F7F8002801D000F0C9F802F09D
:1025200099F901BD30B593B01C2100226C46200002
:10253000FFF724FB3021002207AC2000FFF71EFB31
:10254000564D574828601F20A860002028610020B1
:1025500068610020A8615FF08040E8610020286287
:102560004FF480746C62280002F0AEFA002801D0AB
:1025700000F09EF8002000900020039000200490BE
:10258000002005906946280002F0F3FC002801D0E5
:1025900000F08EF8280002F0CCFC002801D000F0FA
:1025A00087F800200E900020089000200C905FF02B
:1025B0007C500D901294012207A9280002F0EDFA38
:1025C000002801D000F074F813B030BD10B5354CC0
:1025D000354820605FF4E13060600020A06000209A
:1025E000E060002020610C2060610020A0614FF4B9
:1025F0000040E06100202062002060620020A062B4
:10260000200002F0DDFC002801D000F051F800218C
:10261000200004F0B1F8002801D000F049F80021B2
:10262000200004F0D4F8002801D000F041F8200088
:1026300004F07AF8002801D000F03AF810BD80B517
:102640001A48016851F002010160016811F00201AD
:1026500000910099016851F001010160016811F0D9
:10266000010100910099016851F0040101600068C6
:1026700010F004000090009804F016F901BD00006D
:1026800004080246F00C0246880C0246F89200202C
:10269000006002406092002000080C42808F002001
:1026A00000780046F4860020003801408C0C024679
:1026B00072B6FEE72DE9F84304000D0017001E0076
:1026C0005FF00808002C03D0002D01D0002E02D1AD
:1026D0005FF006093AE0207A002802D15FF0040991
:1026E00034E01C4801682068814202D32068002839
:1026F00002D15FF0050929E000F066F981464846FD
:10270000C0B2002822D1144801682068814208D153
:102710003A002900114800F05CFE306030686060CB
:1027200012E0200000F0ACFD00280BD10B486268DD
:1027300001680A613A00290000F07DFE30603068CF
:10274000606001E00720814600F040F94846C0B2D1
:10275000BDE8F28328940020249400200401002086
:102760002DE9F84304000D001600DFF8688198F8A1
:102770000000012801D102202EE0012088F800008D
:102780000020C8F804004FF47A7000F045F8814644
:102790004846C0B200281AD1C8F808404E48070081
:1027A00024F00040012804D13100280000F05CF83A
:1027B00003E03100280000F070F84FF47A7000F068
:1027C0002BF88146396824F00040814339600020AD
:1027D00088F800004846C0B2BDE8F28300203E49B8
:1027E0000A68002A09D53E4A3E4B13603E4B1360EF
:1027F0000968002901D501210800C0B270470120F5
:10280000354A116851F0004111601168002901D565
:1028100000210800C0B2704770B5040004F04CF805
:10282000050065192D4E306810F4403F08D014F1B2
:10283000010FF8D004F040F8A842F4D3032012E0CE
:10284000306842F2FA010140002906D0214A50685E
:10285000084350603160012005E03068C00701D5B1
:1028600001203060002070BDF0B4042602000B008F
:10287000194C256855F001052560EFF3108572B6F7
:102880001F681760121D1B1D761E3700FFB2002F38
:10289000F6D185F31088F0BC7047F0B42026020012
:1028A0000B000D4C256845F4804555F00105256069
:1028B000EFF3108572B61F681760121D1B1D761E80
:1028C0003700FFB2002FF6D185F31088F0BC7047B7
:1028D000000000001C92002028200240202002401E
:1028E0000820024023016745AB89EFCD2DE9F8436D
:1028F00004000D00DFF8C4703878012801D10220EF
:1029000046E001203870002078604FF47A70FFF7BD
:1029100083FF80464046C0B2002835D12068B860A9
:10292000DFF89C000600206820F00040042807D152
:1029300000F030F84FF47A70FFF76EFF80461BE02E
:102940005FF0FF302860606881466168A0684118C8
:10295000894511D2484600F025F84FF47A70FFF708
:102960005BFF80464046C0B2002802D0C5F8009008
:1029700002E019F10109E8E73168206820F0004021
:1029800050F47E7081433160002038704046C0B200
:10299000BDE8F2830A49086840F4803050F0040032
:1029A00008607047064B1A6806490A4052EAC0029E
:1029B00042F4803252F002021A6070471C920020EA
:1029C0002820024005FCFEFF0020704700207047D1
:1029D0001CB584B00023039300290EBF019301901E
:1029E000491E02910024009405AB01A906487844D1
:1029F000163003F06AFF019901B10C70002858BF2E
:102A0000039806B010BD00BFE7F3FFFF80B51822A2
:102A10000021DFF8A80204F0BAFE4FF48052002132
:102A2000DFF89C0204F0B3FE0FF20D10DFF89412F1
:102A30000968884702BD10B504002000DFF8841241
:102A40008968884710BD7CB504000D0000F01AF9B4
:102A50006946280080B200F0C0F810F1010F18D0CC
:102A600000200600280080B286420DD2A25D944963
:102A7000BDF800000A54BDF80000401C0005000D20
:102A8000ADF80000761CEDE700F006F900F007F85D
:102A900003E000F001F97FF0020040B276BDF8B526
:102AA00000270024EFF3108572B600F0FFF800282D
:102AB0003CD100F0E7F8814E318A708A814230D0F3
:102AC000B07801280ED13188308A091AB1820220EB
:102AD000B07000203080B08A002803D10020B07090
:102AE00000203082B07800280CD1318A708A81426F
:102AF00004D2718A308A091AB18203E0308AD0F593
:102B00008050B0826E49308A0844040085F31088F2
:102B100000F01FFAB18A20006A4AD2689047070085
:102B200006E000F0B9F885F3108801E085F310881D
:102B3000380040B2F2BD000070B506000024EFF38B
:102B4000108572B65D498878022804D1002088700B
:102B50000020088205E00A8A888A82181205120D70
:102B60000A820A8A488A824230D0C88A01282DD136
:102B7000887801280ED10A88088A121A8A820220CF
:102B8000887000200880888A002803D1002088707F
:102B900000200882887800280CD10A8A488A82425C
:102BA00004D24A8A088A121A8A8203E0088AD0F577
:102BB00080508882424A088A1044040085F31088B5
:102BC000898A20003F4AD268904705E085F3108843
:102BD00000F0C0F900F060F870BDF0B403005FF0E1
:102BE000FF30EFF3108472B6344E758A328A954204
:102BF00016D1758AD5F580551F002A00BFB292B252
:102C000097422BD31F00328ABFB2974226D20122AD
:102C1000B270728A3280328A1500002272821DE000
:102C2000358A728A954216D2758AD5F580551F006D
:102C30002A00BFB292B2974210D31F00328ABFB2AD
:102C400097420BD20122B270728A3280328A15000A
:102C50000022728202E0358A728AAD1A1F002A00B1
:102C6000BFB292B2974208D2728A0A80728A9A18C8
:102C70001205120D72820022100084F3108800B237
:102C8000F0BC7047EFF3108272B60C48C18A491C41
:102C9000C18282F310887047EFF3108072B6074943
:102CA000CA8A521ECA8280F3108870470348C08ABD
:102CB000002801D1002000E001207047049200208C
:102CC000B8300020AC220308AC49086850F400007A
:102CD0000860704780B500F057F801BD10B50400DA
:102CE000002003F0DFFD00F061F800F071F804F05F
:102CF00061FDA34804F092FDA24A0021802005F066
:102D000021F9A1490A884FF6FF70824202D15FF48F
:102D1000801007E00888002802D15FF4801001E0ED
:102D200008888002400B4FF40052984902FB0010C3
:102D3000FDF716FA964A00214FF4807005F002F96B
:102D400000F067F800F073F8924A0021402005F087
:102D5000F9F805F07FF900F03FF80121012000F0BB
:102D600031F90021022000F02DF90021002000F0AF
:102D700029F905F04CFA0121022000F023F9002086
:102D800003F091FD002010BD80B500200090694641
:102D9000002006F01DF9002803D00C2001F047FCAC
:102DA00003E00098807B01F042FC01BD80B5FFF795
:102DB0008BFF06F02DF9794800F076FC784AD2E9CD
:102DC0000001FEF787FF06F0B9FA06F02FFB01BD00
:102DD00080B506F0B4FC01BD80B501F0F8FD714A84
:102DE0000021012005F0AEF801BD38B505000C004A
:102DF000A100280006F043FF31BD10B50400A0007B
:102E000006F0AAFE10BD10B50400200006F014FF65
:102E100010BD80B5002006F0ADFF012006F0AAFF2E
:102E2000022006F0A7FF012006F0F6FF01BD38B52D
:102E3000594C00202070012084F82000022084F8E2
:102E400040000121002007F00DF80121012007F0CA
:102E500009F80121022007F005F8534A00214FF438
:102E6000806005F06FF8514A00214FF4006005F0D2
:102E700069F84F4A00214FF4805005F063F80025AF
:102E80002800C0B2032811D22800C0B2400120445B
:102E900000900FF21D03002200212800C0B2400163
:102EA0002044001D06F0BEF86D1CE9E731BD0000AE
:102EB00038B504002500287807F080F828772B78AB
:102EC0005B1C3C4A02210020FEF7F5FE2878002812
:102ED00003D002280DD006D311E000214FF480600A
:102EE00005F040F80BE000214FF4006005F03AF8DF
:102EF00005E000214FF4805005F034F8FFE731BDC4
:102F000080B55FF0FF3004F06DFF01BD7047704782
:102F1000704780B50021402005F024F801BD80B540
:102F20000021012005F01EF801BD2349016023495D
:102F3000416023498160704780B50021802005F001
:102F400011F801BD80B500214FF4807005F00AF83A
:102F500001BD7047704710B504000F4800212200E2
:102F6000D2B25201024411774FF4FA712200D2B268
:102F700052011044001D06F0C9F810BDF40C0246C1
:102F8000F40000204B7D0008A007F90B00C0FF07EC
:102F9000971F0008E1810008488A002040000030A7
:102FA000DC000020654A0008718E00088F8E000842
:102FB000B98F00080C220308EB2D0008FB2D000838
:102FC000072E000830B4EFF3108272B60B00DBB2AC
:102FD000002B08D0012B0DD1284D2B6801248440F3
:102FE00023432B6006E0254D2B6801248440A34336
:102FF0002B60FFE782F3108830BC704770B5040087
:103000000D0001261D480168890705D5016849079B
:1030100002D53000C0B20DE00168C907FCD42A0017
:1030200021000120FFF79CFB002801D100200600B1
:103030003000C0B270BD38B584B0040001250F481F
:103040000168890705D50168490702D52800C0B283
:1030500011E00168C907FCD402200190029401200C
:103060000390694601A8FFF741FC002801D1002028
:1030700005002800C0B205B030BD00002C9400202F
:103080002DE9F84390B080460C0000252000002870
:1030900001D1012057E0EFF3108672B6474F387820
:1030A000012802D10120050001E00120387086F3DB
:1030B00010882800C0B2002801D0012043E0404819
:1030C000046000200021CDE9020100200021CDE9AB
:1030D000040100200021CDE90601CDF82080002068
:1030E000099000200A9000208DF82C0005208DF812
:1030F0002D0000200C900FF2D5000D9000200E90B6
:1031000000200F90002000900FF2910300224FF456
:103110007A70B8FBF0F12B4805F084FFDFF8A89037
:1031200002A806F08FFFC9F80000D9F800000028B7
:1031300008D1EFF3108172B60020387081F3108847
:10314000012000E0002011B0BDE8F08310B51D485B
:1031500005F0F6FF1C48006806F0D8FF002801D1F2
:10316000002400E0022401210120FFF72BFFEFF3F0
:10317000108172B600221148027081F3108820007D
:10318000C0B210BD80B500210120FFF71BFF0D4824
:1031900005F06EFF0A480068804701BD10B50400C5
:1031A00001210120FFF70EFFEFF3108272B600201D
:1031B0000249087082F3108810BD00007C95002041
:1031C00074940020EC9100207894002070B50600E3
:1031D0000C001500FFF7D6FF002070BD00604060B6
:1031E00070470100EFF3108272B60868884201D17F
:1031F000012000E0002082F31088C0B27047EFF396
:10320000108272B603680B60486001600B685960F9
:1032100082F310887047EFF3108272B6086043683B
:103220004B6041604B68196082F310887047EFF380
:10323000108172B6436802681A60036842685A6077
:1032400081F31088704770B504000D00EFF310860D
:1032500072B6206828602068FFF7E9FF86F31088BF
:1032600070BDEFF3108372B602680A6083F31088B2
:103270007047FA00960064004B0032001E001400F4
:103280002DE9F843040000251B4E707F002803D071
:10329000300000F07DF805002800C0B2002827D1DA
:1032A0006069F060607B7071207B30712069B06074
:1032B000A0693061E0697061206AB061606A306263
:1032C000300000F01DF805002800C0B2002803D12E
:1032D00021680A4801600BE018275FF0000816F12A
:1032E0000409424639004846FEF748FC0020306297
:1032F0002800C0B2BDE8F28304010020249400201D
:1033000010B50400002C01D101203DE0607F0028B1
:1033100004D100202077200006F070FF02206077A3
:103320002079002809D11949206841612068816805
:1033300031F018012068816008E0E268A16820008F
:1033400007F0DCF8002801D001201DE0607900289A
:1033500004D15FF0FF312068016102E0216920683B
:1033600001612068816831F0600160690143206873
:1033700081602068816831F08001A0690143206884
:10338000816001206077002010BD0000B71DC104DE
:1033900010B50400002C01D1012019E0607F022843
:1033A00001D1022014E0022060772068816851F08A
:1033B0000101206881602068406800212068416028
:1033C000200006F02CFF00206077002020770020EE
:1033D00010BD2DE9F04104000D0016005FF000085B
:1033E00002206077206A012812D01FD3032801D061
:1033F00015D31BE000200700B74205D255F827106F
:10340000206801607F1CF7E72068006880460DE0B7
:1034100032002900200000F046F8804606E0320025
:103420002900200000F08BF88046FFE7012060773C
:103430004046BDE8F0812DE9F04104000D00160082
:103440005FF00008022060772068816851F0010178
:1034500020688160206A012812D01FD3032801D080
:1034600015D31BE000200700B74205D255F82710FE
:10347000206801607F1CF7E72068006880460DE047
:1034800032002900200000F00EF8804606E03200ED
:103490002900200000F053F88046FFE70120607704
:1034A0004046BDE8F081F0B40026B6EB920F14D28E
:1034B00011F8263001EB86077F783F0457EA03674F
:1034C00001EB86039B7857EA032701EB8603DB7841
:1034D0001F4303681F60761CE7E712F0030F2AD032
:1034E00012F00303012B03D111F8267003681F703B
:1034F00012F00303022B0AD111F8263001EB8607E4
:103500007F7857EA03273C0003681D002C8012F0E7
:103510000303032B0FD111F8263001EB86077F78C8
:1035200057EA03273C0003681D002C8001EB86034B
:103530009F7803681F7000680068F0BC704770B423
:103540000024B4EB520F0AD231F8246001EB840559
:103550006D8855EA064506683560641CF1E7D507B5
:1035600004D505682B0031F824501D8000680068E0
:1035700070BC704780B50C49086850F480700860D2
:10358000032000F007FE07F003F8042000F045FEDA
:103590000E2000F08BFE002801D0012002E006F092
:1035A000E1FD002002BD000000200240F0B4030055
:1035B000DFF8D400046814F480349C4201D1002068
:1035C0002FE0DFF8C820116831F480311943116011
:1035D0003225DFF8BC6037686F43DFF8B810B7FBFF
:1035E000F1F1491C17683F0403D4002901D0491E9A
:1035F000F8E7002901D1032013E0326805FB02F54A
:10360000DFF89020B5FBF2F2521C0168090403D4E4
:10361000002A01D0521EF8E7002A01D1032000E061
:103620000020F0BC70470200DFF86400016832201F
:103630004143DFF86000B1FBF0F1491C002A0ED1D4
:10364000DFF85430186830F002001860DFF83800F6
:103650000068800712D5002910D0491EF6E7DFF870
:103660003830186850F002001860DFF81C0000685D
:10367000800703D4002901D0491EF6E7002901D1B3
:10368000032000E0002070473C0802460C08024678
:10369000E001002040420F00080802461349086874
:1036A00050F001000860704710B4114B1A6800F028
:1036B000FF018A4352EA10221A600E4A136803245B
:1036C00000F0FF0191FAA1F1B1FA81F1C9B249000C
:1036D0008C40A34353EA10431360074B1A6800F071
:1036E000FF010A431A6010BC704700002808024618
:1036F000180802461C080246140802462DE9F84F35
:1037000084B00400002C01D1012008E3DFF88C080C
:10371000006810F00C000290DFF890783E6816F018
:1037200003062078C00764D50298082804D00298C0
:103730000C2829D1032E27D16068002801D101204F
:10374000EDE20298082854D1DFF848180A6832F4EC
:103750008812A068024352F480320A60DFF86008E1
:1037600001220968090D11F001018A40B0FBF2F154
:10377000DFF844080160DFF84408006800F096FDB7
:10378000002836D00120CAE26068002819D0DFF88E
:103790000488D8F8001031F4881160680143A068EB
:1037A0000143C8F8001003F087F80500D8F80000BE
:1037B00080031ED403F080F8401B6528F6D3032055
:1037C000ADE2DFF8D087D8F8001031F488116068D6
:1037D0000143C8F8001003F06FF80500D8F80000A6
:1037E000800306D503F068F8401B6528F6D3032054
:1037F00095E2207880074FD50298002804D00298DF
:103800000C2810D1022E0ED12069002801D10120F0
:1038100085E2DFF88427106830F4F810616950EA17
:103820000140106038E0206900281FD0DFF864876D
:10383000D8F8000050F48070C8F8000003F03CF89D
:103840000500D8F80000400506D403F035F8401B09
:103850000328F6D3032062E2DFF83C27106830F437
:10386000F810616950EA0140106015E0DFF8248724
:10387000D8F8000030F48070C8F8000003F01CF89D
:103880000500D8F80000400506D503F015F8401BE8
:103890000328F6D3032042E22078000740F1AB80F2
:1038A00000208DF80000DFF8A407006840070DD461
:1038B000DFF89817086850F004000860086810F0F6
:1038C00004000390039801208DF80000DFF8808742
:1038D000D8F80000C00713D4D8F8000050F0010059
:1038E000C8F8000002F0E8FF0500D8F80000C007A3
:1038F00006D402F0E1FF401B0328F6D303200EE2BA
:10390000DFF85887D8F800A05FF0806050F00050D2
:103910008346A069002850D0A069400120D5E06905
:103920001AF08051884214D05FEA0A1011D53AF09B
:10393000806AC8F800A002F0BFFF0500D8F80000B8
:10394000000106D502F0B8FF401B1528F6D303206E
:10395000E5E13AF0805A5046D4F81CA05AEA000A31
:10396000A06950EA0A0AD146C8F8009002F0A4FF04
:103970008246D8F80010A06911EA400F07D102F082
:103980009BFFB0EB0A001528F3D30320C7E1A06921
:1039900090EA0B0B39EA0B09C8F8009002F08CFF93
:1039A0000500D8F8000010EA4B0F1AD002F084FF8F
:1039B000401B1528F5D30320B1E1D14639EA0B09A4
:1039C000C8F8009002F078FF0500D8F8000010EA6F
:1039D0004B0F06D002F070FF401B1528F5D30320D3
:1039E0009DE19DF80000012805D1DFF8600601681F
:1039F00031F0040101602078400740F1A6800020EA
:103A00008DF80000DFF84486D8F8000040070ED497
:103A1000D8F8000050F00400C8F80000D8F8000002
:103A200010F004000390039801208DF80000DFF8E7
:103A300020A6DAF80000C00713D4DAF8000050F02E
:103A40000100CAF8000002F037FF0500DAF80000B4
:103A5000C00706D402F030FF401B0328F6D3032032
:103A60005DE1E068002837D0DFF8F0A5DAF8001053
:103A700031F08001E06801438946CAF8009002F005
:103A80001BFF0500DAF80000800708D402F014FFDD
:103A9000401B41F289318842F4D303203FE1207B6F
:103AA00000060CD5DAF80000000544D402F004FF4B
:103AB000401B41F289318842F4D303202FE1DAF828
:103AC0000000000537D502F0F7FE401B41F28931B6
:103AD0008842F4D3032022E1DFF880A5DAF8000061
:103AE00030F08100CAF80000DAF8000030F004007D
:103AF000CAF8000002F0E0FE0500DAF800008007D6
:103B000008D502F0D9FE401B41F289318842F4D336
:103B1000032004E1DAF8000000060CD5DAF8000012
:103B2000000508D502F0C8FE401B41F289318842E9
:103B3000F4D30320F3E09DF80000012805D1D8F864
:103B4000000030F00400C8F80000206A002800F0EF
:103B5000E58002980C2800F09180206A022871D13B
:103B6000DFF83084D8F8000030F080708146C8F863
:103B7000009002F0A1FE8246D8F80000814602F0D3
:103B80009BFEB0EB0A00032801D30320C7E05FEAE5
:103B90008910F1D4606A032807D1DFF8240449466C
:103BA000090D11F00101C84001E0DFF80804A16A25
:103BB000B0FBF1F0DFF8AC14884201D30C2600E032
:103BC00000263968DFF8A0040140606A01433143F0
:103BD000A06A401E51EA002151F480213960E06A58
:103BE000401E226B521E50EA4220626B521E50EA67
:103BF0000240A26B521E50EA026001900198DFF869
:103C0000B0231060E06B002808D0E16BC900DFF83A
:103C10005C040160386850F010003860D8F800008B
:103C200050F08070C8F8000002F046FE0500D8F899
:103C30000000800172D402F03FFE401B0328F6D33F
:103C400003206CE0DFF84C83D8F8000030F080707F
:103C5000C8F8000002F030FE0500D8F8000080012E
:103C600006D502F029FE401B0328F6D3032056E0B8
:103C70003968DFF8FC03014039604FE0206A012811
:103C800001D101204BE03968DFF82403006801907E
:103C900011F00302606A824221D1C1F30222A06ABC
:103CA000401E82421BD1019AD205D20DE06A401E0D
:103CB000824214D10198C0F34622206B401E8242FA
:103CC0000DD10198C0F30642606B401E824206D1BE
:103CD0000198C0F30662A06B401E824201D0012011
:103CE0001DE0DFF88883D8F80000C0F3CC09E06B52
:103CF000484513D0386830F01000386002F0DCFD21
:103D0000050002F0D9FD401B0028FAD0E06BC0008E
:103D1000C8F80000386850F010003860002005B086
:103D2000BDE8F08F2DE9F84F04000E00002C01D102
:103D30000120D8E0DFF83CA3DAF8000010F00F0013
:103D4000B0420ED2DAF80000000900013043CAF890
:103D50000000DAF8000010F00F00B04201D001209E
:103D6000C1E02078800609D5DFF83C22116831F0E7
:103D70001701A0690143E069014311602078C00781
:103D800059D5DFF8F402006883466068032815D12E
:103D90005FEA8B1001D40120A5E0DFF80002016882
:103DA00011F00C016068B1EB800F14D0DFF8FC213A
:103DB0000120116860F3155111600CE06068022861
:103DC00004D15FEA8B3006D401208CE05FEA4B50CF
:103DD00001D4012087E0714D296889088900606855
:103DE0000143296002F068FD0700296811F00C0109
:103DF0006068B1EB800F08D002F05EFDC01B41F29D
:103E000089318842F1D303206DE06068032812D124
:103E1000DFF89851286830F48010286002F04CFDDB
:103E200007002868400206D402F046FDC01B0B289C
:103E3000F7D3032057E0DFF86881D8F80090002519
:103E4000207880070AD55FEAD9095FEAC9094846A0
:103E5000D4F8089059EA00090120050020784007AD
:103E600008D539F070094846D4F80C9059EA000991
:103E7000012005002078000706D539F4E0692069A3
:103E800059EA001901200500002D01D0C8F8009062
:103E90002078C00602D5616942480160DAF8000066
:103EA00010F00F0086420ED2DAF80000000900017F
:103EB0003043CAF80000DAF8000010F00F00B042FA
:103EC00001D001200FE000F010F8DFF8B011D8F8B1
:103ED000002012F00702895CC84037490860374863
:103EE000006800F0E3F9BDE8F28F10B52B480468D4
:103EF00014F00C04002C01D12E480CE0082C08D141
:103F00002F48DFF874110968090D11F00101C8404C
:103F100001E000F030F810BD80B5FFF7E6FF26495C
:103F2000564A1F4B1B6813F00703D25CD040086051
:103F3000086802BD80B5FFF7EFFF5149184A1268C3
:103F4000C2F30212895CC84002BD80B5FFF7E4FFEE
:103F50004B49134A1268C2F30222895CC84002BD71
:103F600080B5FFF7D9FF46490E4A1268C2F3021224
:103F7000895CC84002BD10B542480068C0F30664C1
:103F8000641C00F01FF8BCEEC00A10EE100AB0FB73
:103F9000F4F010BD000C0246100C02461C0C024648
:103FA000200C0246240C0246000E0246280C024653
:103FB000340C02460024F400E0010020B00100208F
:103FC0000048E8012F480168C805C00D401C00EEFC
:103FD000900AB8EE600A2C480068C0F30222521C16
:103FE00001EE102AF8EE411AC20606D51F490968EB
:103FF000C1F3CC0100EE901A01E0DFED160AB8EE35
:10400000601A10F00301022902D0032903D010E046
:104010009FED112A0FE01D49174A1268120D12F088
:104020000102D14002EE101AF0EE420AB8EE602A08
:1040300001E09FED082AC2EE211A9FED092A81EEC8
:10404000021A31EE000A21EE800A7047940C0246F3
:1040500028080246000000000024744BF00C0246C1
:104060000000004601127A00E0F8FFFF380C02461B
:10407000FCFFF8FF00200240000C024690230308DA
:1040800098230308340C0246280C02460048E80135
:1040900010B410F00702DFF8E8311C684FF6FF019A
:1040A0000C4054EA0224DFF8DC110C431C6010BC05
:1040B0007047DFF8CC010068C0F3022070470000B1
:1040C000010049B200290AD4012210F01F018A40E0
:1040D000DFF8B431010049B2490943F821207047A3
:1040E000010049B200290ED4012210F01F018A40BC
:1040F000DFF89831010049B2490943F82120BFF3A4
:104100004F8FBFF36F8F7047010049B200290AD467
:10411000012210F01F018A40DFF87431010049B21A
:10412000490943F82120704710B4020052B2002A16
:1041300005D40C01574B020052B29C5408E00A010E
:10414000554C03005BB213F00F03234403F8042C17
:1041500010BC704770B4030013F00704D4F10700DB
:10416000052801D3042001E0D4F10700251D072D07
:1041700001D2002600E0E61E012515FA00F0401EDF
:104180000140B14015FA06F6761E32401143080090
:1041900070BC704710B504002000FFF779FF10BD18
:1041A000F8B507000C001500FFF783FF060016F0B6
:1041B00007062A0021003000FFF7CCFF010038007D
:1041C00040B2FFF7B1FFF1BD10B50400200040B2CE
:1041D000FFF776FF10BD10B50400200040B2FFF7D6
:1041E0007FFF10BD0100481EB0F1807F01D3012088
:1041F0000BE04A1E29480260002229480260294A31
:10420000106850F0030010600020704710B50400E3
:10421000200040B2FFF778FF10BD010000290BD04D
:10422000012914D002291ED0042928D11D4A116861
:1042300051F00401116022E01A4A116831F00401C2
:104240001160194A116831F44001116017E0154AF4
:10425000116831F004011160134B01211A6861F3F8
:1042600097521A600BE00F4A116831F00401116097
:104270000D4B02211A6861F397521A60FFE77047ED
:104280000CED00E00000FA0500E100E080E100E054
:1042900000E200E000E400E018ED00E014E000E0DF
:1042A00018E000E010E000E0E00C024670B5050008
:1042B00000262B490878002801D101204EE029482A
:1042C000006840070AD54FF47A700978B0FBF1F026
:1042D00025490968B1FBF0F006002FE0234800688B
:1042E00010F4400004002000002806D0B0F5800F34
:1042F0000ED0B0F5000F16D020E04FF4FA50097838
:10430000B0FBF1F018490968B1FBF0F0060015E0C8
:104310004FF47A700978B0FBF1F14FF4FA40B0FB3A
:10432000F1F006000AE04FF47A700978B0FBF1F082
:104330004FF40041B1FBF0F00600FFE73000FFF75B
:1043400051FF002801D0012008E0002229005FF081
:10435000FF30FFF725FF06480560002070BD00BF55
:104360008805002010E000E0E0010020E00C02469B
:10437000B00100202DE9F84F07003878C00707D5B5
:10438000DFF8D4120A6892089200786802430A6043
:104390003878800707D5DFF8C0120A6832F00C02BF
:1043A000B86802430A603878400707D5DFF8A812DA
:1043B0000A6832F44062F86802430A6038780007FD
:1043C00007D5DFF894120A6832F4402238690243B4
:1043D0000A603878C00607D5DFF87C120A6832F424
:1043E0004012786902430A603878800607D5DFF802
:1043F00068120A6832F44002B86902430A603878E9
:10440000400607D5DFF850120A6822F00042F8692A
:1044100002430A60387800061AD5DFF840120A68AD
:1044200032F0E002386A02430A60386A002806D196
:10443000DFF82C02016851F48031016008E0386A2D
:10444000202805D1DFF81802016851F4003101601D
:104450003868C00511D5DFF804120A6832F44052FA
:10446000786A02430A60786AB0F5405F05D1DFF8E8
:10447000F011086850F4003008603868800207D5F1
:10448000DFF8D821116831F08041B86A014311602A
:104490003868800507D5DFF8CC110A6892089200C9
:1044A000F86A02430A603868400507D5DFF8B4218E
:1044B000116831F01801386B01431160386800054C
:1044C00007D5DFF8A021116831F0C001786B0143F6
:1044D00011603868C00407D5DFF88821116831F40D
:1044E0004061B86B014311603868800411D5DFF872
:1044F0007421116831F4E041F86B01431160F86BED
:10450000B0F5005F05D1DFF85811086850F480302D
:1045100008603868400474D55FF0000ADFF848810D
:10452000D8F8000010F440700400386C844268D061
:10453000DFF83891D9F8000040070DD4D9F8000011
:1045400050F00400C9F80000D9F8000010F0040091
:104550000090009801208246DFF814B1DBF80000DB
:1045600050F00100CBF8000002F0A6F90600DBF8DD
:104570000000C00706D402F09FF9801B0328F6D381
:10458000032052E0D8F8000030F440700500002C01
:1045900010D0DFF8E00001680C00D8F8001051F4EA
:1045A0008031C8F80010D8F8001031F48031C8F814
:1045B00000100460386C2843C8F80000DFF8B80029
:1045C00050F0005028400400002C10D002F074F984
:1045D0000600D8F8000010EA440F08D102F06CF988
:1045E000801B41F289318842F3D303201DE05046FD
:1045F000C0B2012805D1D9F8000030F00400C9F894
:104600000000386800040FD5DFF85C20116831F431
:104610004021786C01431160106810F44020796CDF
:10462000884201D0012000E00020BDE8F28F134A4B
:10463000116831F47C1151EA004111607047104952
:10464000086850F00200086070470D49086830F0B3
:104650000200086070470000E00C0246E40C0246CD
:10466000280C0246E80C0246F00C0246940C024666
:1046700028080246F80C024601000004100E02460B
:10468000080E0246010000200A4A1368DB0702D523
:104690000122100004E0136833F004030B4313609D
:1046A000C0B270470349086850F00100086000205C
:1046B000704700000004034010B50400002C01D135
:1046C000012009E002202071200005F0B2FD002049
:1046D000A06001202071002010BD02001079012887
:1046E00007D10220107110680160012010710020B4
:1046F00002E002209060012070470068006810F41A
:10470000E020704770B50400002C01D1012060E06A
:10471000607A002804D100202072200005F096FD68
:10472000022060722068006830F004002168086090
:1047300020680168274801406068014341F08041DA
:1047400051F40051206801602068016831F0804117
:104750002068016002F0B0F80500206800684000A1
:104760000ED502F0A9F8401B0B28F6D3206800688C
:104770004000F2D5012060720220E060012028E0B4
:104780002068016851F004012068016020684068D9
:10479000400603D50420607201201AE002F08CF874
:1047A00006002068406840070ED502F085F8801B9F
:1047B0000B28F6D3206840684007F2D504206072C9
:1047C0000220E060012004E0012060720020E0602F
:1047D000002070BDDF1FFFBFB749086850F480702C
:1047E00008607047B4480068800A10F00100704704
:1047F00081B0B24A11680143116011680140009113
:10480000009901B07047AD4A11688143116070474B
:10481000016851F0040101607047016831F0040142
:1048200001607047406810F0010070474068400820
:1048300010F0010070474068800910F001007047D7
:104840007FF02001416070477FF040014160704778
:104850008068704780B5042005F036FF9848FFF760
:10486000DCFF012000F01CF8042005F02EFF01BD44
:1048700070B50400934D05F02CFFEFF3108672B66F
:1048800095F88200002803D15FF48020FFF7B0FF85
:1048900095F88200204385F8820086F3108870BD69
:1048A00070B50400874DEFF3108172B695F8820061
:1048B000A04385F8820081F3108895F882000028D3
:1048C00001D100F010F8EFF3108672B695F882006F
:1048D000002803D15FF48020FFF795FF86F310884E
:1048E00005F002FF70BD81B0B22000900098002852
:1048F00003D00098401E0090F8E701B070472DE902
:10490000F0410400002694F8810000280FD1032014
:1049100005F0DAFE0120FFF7ABFF6948FFF778FFEB
:10492000032005F0D2FE012084F881004CE0644FA2
:104930003800FFF77BFF002806D03800FFF780FF24
:1049400040F2011006003FE03800FFF774FF002836
:104950000FD03800FFF778FF0C200500012D04DB95
:104960003800FFF775FF6D1EF8E74FF48170060001
:104970002AE094F88000202821DAEFF3108872B63C
:10498000052005F0A1FE94F88000202811DA3800F7
:10499000FFF748FF00280CD03800FFF759FF94F8C4
:1049A000801044F8210094F88000401C84F88000B6
:1049B000E9E7052005F089FE88F3108804E0FFF799
:1049C00049FF002084F881003000BDE8F08110B577
:1049D0003C4C002084F88000002084F881000020F6
:1049E000C4F88400002084F882002000FFF787FFCD
:1049F000C4F8840094F88100002803D0D4F884001F
:104A00000028F2D010BDF8B507000D002D4E38007B
:104A1000471EC0B2002822D0EFF3108172B696F87C
:104A2000800000280CD140F20310C6F88400380042
:104A3000C0B210F01F0056F82000C043040009E087
:104A400096F88000401E86F8800096F8800056F8A0
:104A50002000040081F310882C602D1DD7E7FEF79D
:104A60005EFAF1BD70B5174D002495F8810000285D
:104A700003D195F88000202818DAEFF3108672B67B
:104A8000D5F8840004000020C5F8840086F310885F
:104A9000002C0BD12800FFF732FF0400002C05D1B9
:104AA00095F88100002801D001200400002C01D0DD
:104AB000FEF735FA200070BD000C02468C0C024651
:104AC00000080C42508800202DE9F0410400012527
:104AD000002C5ED094F82D00002805D1002084F829
:104AE0002C00200005F0D8FB022084F82D00DFF810
:104AF000BC83D8F80000C00642D4DFF8B463CA20F3
:104B0000306053203060200000F07BF90500280061
:104B1000C0B2002831D1DFF89C733968DFF8980300
:104B20000140396039686068014320690143A06928
:104B300001433960E068A16850EA0140DFF87C1366
:104B40000860D8F8001031F4F851606A0143A06A97
:104B50000143C8F80010200000F07BF90500280090
:104B6000C0B2002809D1396821F06041206A0143B0
:104B7000E0690143606901433960FF20306001E072
:104B8000002005002800C0B2002802D1012084F8CE
:104B90002D002800C0B2BDE8F0812DE9F84F0500D6
:104BA0000E001400002795F82C00012801D10220E6
:104BB000C2E0012085F82C00022085F82D00DFF8E6
:104BC000EC02D0F8008018F44078B8F5807F4FD020
:104BD000002C33D1DFF8DC020068400601D400204D
:104BE000F070306A0028FFD0307800F079F9814603
:104BF000707800F075F98346B07800F071F982465C
:104C000096F8240000F06CF95FFA89F95FFA8BFBE3
:104C10005FEA0B2B5BEA094B5FFA8AFA5AEA0B0B45
:104C2000F1785BEA815BC0B25BEA006B306A50EA04
:104C30000B0B706950EA0B0B5F4619E0DFF874024A
:104C40000068400601D40020F070307871780902C5
:104C500051EA0041B0780143F07851EA805196F86A
:104C6000240051EA0061306A0143706901430F007A
:104C7000F06AB0F5807F2FD1DFF83812086830F481
:104C8000885008600122DFF848020260B8F5807F92
:104C900006D1B269F0690243DFF82C02026006E037
:104CA000DFF81C020760B269DFF81C02026072685C
:104CB000DFF820020260B06A012804D1086850F0D1
:104CC0000060086003E0086830F000600860086871
:104CD00050F48850086028E07649086830F408509D
:104CE000086002207A4A1060B8F5807F05D1B26969
:104CF000F06902437548026004E072480760B269D7
:104D0000724802607068744A1060B06A012804D169
:104D1000086850F08050086003E0086830F0805068
:104D20000860086850F408500860012085F82D00DC
:104D3000002085F82C000020BDE8F28F020092F8D8
:104D40002C00012801D1022024E0012082F82C004F
:104D5000022082F82D00B1F5807F0AD1554B1868EA
:104D600030F488501860584B186820F000401860E4
:104D700009E0504B186830F408501860534B18681D
:104D800020F000401860012082F82D00002082F8F9
:104D90002C000020704738B5040050480568E8072B
:104DA00005D501214A480160200005F029FDA8072A
:104DB00005D5022146480160200005F041FD012093
:104DC00084F82D0031BD70B50400384D286830F0EE
:104DD0002000286001F070FD0600286880060ED4CF
:104DE00001F06AFD801B40F2E9318842F5D3286862
:104DF000800604D4032084F82D00032000E0002066
:104E000070BDF8B504000026284F386840061DD450
:104E1000386850F08000386001F04EFD05003868B9
:104E2000400613D43000C0B203280FD001F044FD77
:104E3000401B40F2E9318842F1D33868400605D47E
:104E400003200600032084F82D00E8E73000C0B2FC
:104E5000F2BD70B5040000251449086830F08000E8
:104E60000860144E306880060AD42000FFF7ABFFBC
:104E7000002817D0032084F82D000320050011E03E
:104E8000306830F0200030602000FFF79CFF0028E1
:104E900004D0032084F82D0003200500306850F072
:104EA000200030602800C0B270BD00000C780046C1
:104EB0002478004618780046BFFF8FFB1078004624
:104EC0004078004648780046447800464C780046D2
:104ED0005C78004670780046747800465478004646
:104EE0000300002118000200D2B20A2A02D3491C92
:104EF0000A38F8E750EA0110C0B27047010091F893
:104F00002C00012801D1022012E0012081F82C00A0
:104F1000022081F82D00DFF89420106850F0200066
:104F20001060012081F82D00002081F82C00002065
:104F30007047010091F82C00012801D1022012E0F5
:104F4000012081F82C00022081F82D00DFF85C2080
:104F5000106850F080001060012081F82D000020C2
:104F600081F82C0000207047124B13EB81031A606C
:104F7000704710B402000B68486803430E48036092
:104F80008B68C8680343886903430C480360084B77
:104F90001C6834F0FF1408690443486954EA00446B
:104FA0001C60002010BC704700000000187800460C
:104FB000207C0046007D00461C780046247C00468C
:104FC00010B50400002C01D1012043E0A0690028A5
:104FD000FFD1D4F88800002811D1002084F8840083
:104FE000200000F055FBD4F8C000002803D1DFF802
:104FF0002C03C4F8C0002000D4F8C0108847242037
:10500000C4F88800206801684908490020680160E8
:10501000A06A002802D0200000F0F0FC200000F080
:1050200064FB012801D1012014E02068416831F4BB
:105030009041206841602068816831F02A01206831
:1050400081602068016851F0010120680160200042
:1050500000F041FD10BD10B50400002C01D101206D
:105060002EE02420C4F8880020680168490849001F
:1050700020680160002120680160002120684160F3
:10508000002120688160D4F8C400002803D1DFF833
:105090009002C4F8C4002000D4F8C410884700204F
:1050A000C4F890000020C4F888000020C4F88C00E8
:1050B0000020E06600202067002084F884000020A3
:1050C00010BD30B40300D3F88800202850D1002947
:1050D00003D0100080B2002801D1012049E01965F9
:1050E000A3F85420A3F85620002098670020C3F8A6
:1050F00090002120C3F88800586EB0F1005F1CD1E9
:105100009868B0F5805F06D11869002803D1DFF8F0
:105110001402986702E0DFF81002986718680830F8
:1051200050E8000F50F400000400186810F1080562
:1051300045E800400028F1D118E09868B0F5805F9C
:1051400006D11869002803D1DFF8E001986702E072
:10515000DFF8DC019867186850E8000F50F0800015
:1051600004001D6845E800400028F4D1002000E05C
:10517000022030BC704770B505000C001600D5F851
:105180008C00202824D1002C03D0300080B20028CD
:1051900001D101201DE00020E8662968DFF89401B4
:1051A00081420ED02868406800020AD5286850E87D
:1051B000000F50F0806001002A6842E800100028CB
:1051C000F4D1320092B22100280000F03FFD00E04F
:1051D000022070BD2DE9F04180460C0015002F0023
:1051E000D8F88800202840F09680002C03D02800B2
:1051F00080B2002801D101208EE0C8F85040A8F804
:105200005450A8F856500020C8F890002120C8F843
:105210008800D8F87C00002867D0DFF81C11D8F887
:105220007C000166DFF81411D8F87C004166DFF8D5
:105230001011D8F87C0081660021D8F87C00C16686
:10524000D8F80800B0F5805F06D1D8F81000002823
:1052500002D1ADB268000700D8F87C0090F8500089
:10526000000629D5D8F87C00406F002821D0D8F856
:105270007C00406F006800281BD0380080B2D8F84E
:105280007C10496F09688860D8F85000D8F87C1005
:10529000496F0968C860D8F800002830D8F87C1039
:1052A000496F09680861D8F87C0005F0CDFA06005E
:1052B0000FE0012006000CE03B009BB2D8F8000094
:1052C00010F12802D8F85010D8F87C0005F0FAFB4D
:1052D00006003000C0B2002807D01020C8F89000A7
:1052E0002020C8F88800012016E04021D8F80000EE
:1052F0000162D8F80000083050E8000F50F080003C
:105300000100D8F8000010F1080242E8001000285F
:10531000EFD1002000E00220BDE8F081F5A20008F6
:105320007BA400089B6000081D600008B95F0008AE
:10533000615F000800240046915E0008E15E0008FD
:10534000F15E00082DE9F04705002868C669286865
:1053500007682868D0F8088040F60F043440002C15
:105360000DD1B0060BD5B80602D45FEAC80006D549
:10537000686F002802D02800696F884786E1002CFA
:1053800000F0AA80DFF8640618EA000F04D1DFF805
:1053900060160F4200F0A0803100C9070AD5F90558
:1053A00008D5012229680A62D5F8901051F0010150
:1053B000C5F89010B1070BD54146C90708D50221A1
:1053C0002A681162D5F8901051F00401C5F89010C8
:1053D00071070BD54146C90708D504212A68116217
:1053E000D5F8901051F00201C5F8901031070DD595
:1053F000B90602D418EA000F08D008212868016213
:10540000D5F8900050F00800C5F8900030050BD595
:10541000780109D54FF4006128680162D5F8900041
:1054200050F02000C5F89000D5F89000002852D028
:10543000B0060AD5B80602D45FEAC80005D5686F81
:10544000002802D02800696F8847D5F8900082466E
:1054500028688068400602D41AF0280F34D028004B
:1054600000F0BEFC28688068400628D5286808300F
:1054700050E8000F30F040000100286810F10802E9
:1054800042E800100028F1D1D5F88000002811D0A2
:10549000DFF86015D5F88000C166D5F8800005F00A
:1054A000B1FB002817D0D5F88000D5F88010C96E60
:1054B000884710E02800D5F8A41088470BE02800A2
:1054C000D5F8A410884706E02800D5F8A41088472E
:1054D0000020C5F89000D9E0E86E012840F0AE80C9
:1054E000F00640F1AB80F80640F1A8801021286852
:1054F00001622868806840065DD5D5F880000068A4
:10550000D0F84890484680B2002853D04846B5F8B5
:105510005C1080B288424DD2A5F85E90D5F880002C
:10552000006D81283AD0286850E8000F30F4807070
:1055300001002A6842E800100028F4D128680830E9
:1055400050E8000F400840000100286810F10802F0
:1055500042E800100028F1D12868083050E8000F18
:1055600030F040000100286810F1080242E8001005
:105570000028F1D12020C5F88C000020E8662868BA
:1055800050E8000F30F0100001002A6842E80010D7
:105590000028F4D1D5F8800005F0DCFA0220286755
:1055A000B5F85C10B5F85E00091A89B22800D5F884
:1055B000BC2090476AE0B5F85C90B5F85E00B9EBA6
:1055C0000009B5F85E00002837D0484680B20028B0
:1055D00033D0286850E8000F30F4907001002A683A
:1055E00042E800100028F4D12868083050E8002F65
:1055F000DFF8040402401100286810F1080242E8B4
:1056000000100028F0D12020C5F88C000020E866AA
:1056100000206867286850E8000F30F01000010093
:105620002A6842E800100028F4D102202867494681
:1056300089B22800D5F8BC20904727E030060BD56A
:10564000380602D45FEA082006D5A86F002802D0E9
:105650002800A96F884719E0700605D5780603D59C
:10566000280000F05CFD11E0300206D5780004D57A
:105670002800D5F8B810884708E0F00106D5002FBB
:1056800004D52800D5F8B4108847FFE7BDE8F087B7
:10569000DFF8B017C0F89410DFF8AC17C0F8981016
:1056A000DFF8A817C0F89C10DFF8A417C0F8A01006
:1056B000DFF8A017C0F8A410DFF89C17C0F8A810F6
:1056C000DFF89817C0F8AC10DFF89417C0F8B010E6
:1056D000DFF89017C0F8B410DFF88C17C0F8B810D6
:1056E000DFF88817C0F8BC1070472DE9F84F0700A5
:1056F0000025DFF84C1738688842FFD0BB6838694E
:10570000034378690343FA691A4338680368DFF88A
:10571000600703401343386803603868436833F414
:105720004053F868034338684360D7F818803868F6
:10573000884202D0386A50EA080838688268DFF880
:105740003407024058EA0202386882603868C26A48
:1057500012091201786A02433868C2623A68DFF8B7
:105760001807824216D1DFF81407006810F0030012
:10577000002805D0022805D006D3032806D007E06C
:1057800001263FE004263DE008263BE0102639E0F4
:10579000202637E03A68DFF8E806824217D1DFF8C2
:1057A000DC06006810F00C00002806D0042808D0A1
:1057B000082804D00C2806D007E0002622E00426A2
:1057C00020E008261EE010261CE020261AE038689B
:1057D000884216D1DFF8AC06006810F003000028FC
:1057E00005D0022805D006D3032806D007E00226FC
:1057F00008E0042606E0082604E0102602E0202641
:1058000000E020263868884253D13000C0B2022818
:1058100006D0042808D0082809D010280BD00DE0A5
:10582000FEF79EFB81460DE0DFF85C960AE0FEF78E
:105830005CFB814606E04FF4004903E05FF000099D
:1058400001200500B9F1000F00F0C180DFF83C161F
:10585000786A31F81000B9FBF0F082467A680320CC
:105860004243924505D37A684FF4805042435245F3
:1058700002D201200500AAE0786A31F81000B9FBD5
:10588000F0F34FF48072786840080021E2FB0301D6
:105890007A68002305F092FB0400B4F5407F05D33D
:1058A000B4F5801F02D23868C46090E00120050082
:1058B0008DE0F869B0F5004F49D13000C0B2002842
:1058C00008D001280AD004280CD008280DD01028B0
:1058D0000FD011E0FEF72EFB814611E0FEF735FBFD
:1058E00081460DE0DFF8A0950AE0FEF7FEFA81465A
:1058F00006E04FF4004903E05FF0000901200500D5
:10590000B9F1000F63D0DFF88405796A30F811002F
:10591000B9FBF0F17868400810EB41007968B0FB02
:10592000F1F00400102C0FD3B4F5803F0CD24FF6E9
:10593000F07121402000C0F3420001438B465946DC
:1059400089B23868C16042E0012005003FE03000C4
:10595000C0B2002808D001280AD004280CD008289A
:105960000DD010280FD011E0FEF7E4FA814611E0C7
:10597000FEF7EBFA81460DE0DFF80C950AE0FEF742
:10598000B4FA814606E04FF4004903E05FF00009F5
:1059900001200500B9F1000F19D0DFF8F014786A82
:1059A00031F81000B9FBF0F0796810EB510079681C
:1059B000B0FBF1F00400102C07D3B4F5803F04D203
:1059C000210089B23868C16001E001200500012092
:1059D000A7F86A000120A7F8680000207867002077
:1059E000B8672800C0B2BDE8F28F000001000010C7
:1059F00020010004455F0008FEFFFFEF90F828102B
:105A0000090707D501684A6832F40042816B0A43EE
:105A100001684A6090F82810C90707D501684A68EC
:105A200032F40032C16A0A4301684A6090F82810D3
:105A3000890707D501684A6832F48032016B0A434E
:105A400001684A6090F82810490707D501684A683C
:105A500032F48022416B0A4301684A6090F82810B2
:105A6000C90607D501688A6832F48052C16B0A43BF
:105A700001688A6090F82810890607D501688A684D
:105A800032F40052016C0A4301688A6090F82810D1
:105A9000490613D501684A6832F48012416C0A4302
:105AA00001684A60416CB1F5801F07D101684A68FE
:105AB00032F4C002816C0A4301684A6090F82810F1
:105AC000090607D501684A6832F40022C16C0A430E
:105AD00001684A60704738B504000020C4F890009F
